{
    "contractName": "stockenCapital",
    "abi": [
        {
            "inputs": [
                {
                    "internalType": "string",
                    "name": "contractUri",
                    "type": "string"
                }
            ],
            "stateMutability": "nonpayable",
            "type": "constructor"
        },
        {
            "anonymous": false,
            "inputs": [
                {
                    "indexed": true,
                    "internalType": "address",
                    "name": "account",
                    "type": "address"
                },
                {
                    "indexed": true,
                    "internalType": "address",
                    "name": "operator",
                    "type": "address"
                },
                {
                    "indexed": false,
                    "internalType": "bool",
                    "name": "approved",
                    "type": "bool"
                }
            ],
            "name": "ApprovalForAll",
            "type": "event"
        },
        {
            "anonymous": false,
            "inputs": [
                {
                    "indexed": true,
                    "internalType": "bytes32",
                    "name": "role",
                    "type": "bytes32"
                },
                {
                    "indexed": true,
                    "internalType": "bytes32",
                    "name": "previousAdminRole",
                    "type": "bytes32"
                },
                {
                    "indexed": true,
                    "internalType": "bytes32",
                    "name": "newAdminRole",
                    "type": "bytes32"
                }
            ],
            "name": "RoleAdminChanged",
            "type": "event"
        },
        {
            "anonymous": false,
            "inputs": [
                {
                    "indexed": true,
                    "internalType": "bytes32",
                    "name": "role",
                    "type": "bytes32"
                },
                {
                    "indexed": true,
                    "internalType": "address",
                    "name": "account",
                    "type": "address"
                },
                {
                    "indexed": true,
                    "internalType": "address",
                    "name": "sender",
                    "type": "address"
                }
            ],
            "name": "RoleGranted",
            "type": "event"
        },
        {
            "anonymous": false,
            "inputs": [
                {
                    "indexed": true,
                    "internalType": "bytes32",
                    "name": "role",
                    "type": "bytes32"
                },
                {
                    "indexed": true,
                    "internalType": "address",
                    "name": "account",
                    "type": "address"
                },
                {
                    "indexed": true,
                    "internalType": "address",
                    "name": "sender",
                    "type": "address"
                }
            ],
            "name": "RoleRevoked",
            "type": "event"
        },
        {
            "anonymous": false,
            "inputs": [
                {
                    "indexed": true,
                    "internalType": "address",
                    "name": "operator",
                    "type": "address"
                },
                {
                    "indexed": true,
                    "internalType": "address",
                    "name": "from",
                    "type": "address"
                },
                {
                    "indexed": true,
                    "internalType": "address",
                    "name": "to",
                    "type": "address"
                },
                {
                    "indexed": false,
                    "internalType": "uint256[]",
                    "name": "ids",
                    "type": "uint256[]"
                },
                {
                    "indexed": false,
                    "internalType": "uint256[]",
                    "name": "values",
                    "type": "uint256[]"
                }
            ],
            "name": "TransferBatch",
            "type": "event"
        },
        {
            "anonymous": false,
            "inputs": [
                {
                    "indexed": true,
                    "internalType": "address",
                    "name": "operator",
                    "type": "address"
                },
                {
                    "indexed": true,
                    "internalType": "address",
                    "name": "from",
                    "type": "address"
                },
                {
                    "indexed": true,
                    "internalType": "address",
                    "name": "to",
                    "type": "address"
                },
                {
                    "indexed": false,
                    "internalType": "uint256",
                    "name": "id",
                    "type": "uint256"
                },
                {
                    "indexed": false,
                    "internalType": "uint256",
                    "name": "value",
                    "type": "uint256"
                }
            ],
            "name": "TransferSingle",
            "type": "event"
        },
        {
            "anonymous": false,
            "inputs": [
                {
                    "indexed": false,
                    "internalType": "string",
                    "name": "value",
                    "type": "string"
                },
                {
                    "indexed": true,
                    "internalType": "uint256",
                    "name": "id",
                    "type": "uint256"
                }
            ],
            "name": "URI",
            "type": "event"
        },
        {
            "anonymous": false,
            "inputs": [
                {
                    "indexed": false,
                    "internalType": "address",
                    "name": "creator",
                    "type": "address"
                },
                {
                    "indexed": false,
                    "internalType": "uint256",
                    "name": "id",
                    "type": "uint256"
                }
            ],
            "name": "burnNFT",
            "type": "event"
        },
        {
            "anonymous": false,
            "inputs": [
                {
                    "indexed": false,
                    "internalType": "address",
                    "name": "creator",
                    "type": "address"
                },
                {
                    "indexed": false,
                    "internalType": "uint256",
                    "name": "userId",
                    "type": "uint256"
                },
                {
                    "indexed": false,
                    "internalType": "string",
                    "name": "info",
                    "type": "string"
                },
                {
                    "indexed": false,
                    "internalType": "string",
                    "name": "titulo",
                    "type": "string"
                },
                {
                    "indexed": false,
                    "internalType": "enum stockenCapital.Category",
                    "name": "category",
                    "type": "uint8"
                },
                {
                    "indexed": false,
                    "internalType": "uint256",
                    "name": "id",
                    "type": "uint256"
                }
            ],
            "name": "newNFT",
            "type": "event"
        },
        {
            "inputs": [],
            "name": "DEFAULT_ADMIN_ROLE",
            "outputs": [
                {
                    "internalType": "bytes32",
                    "name": "",
                    "type": "bytes32"
                }
            ],
            "stateMutability": "view",
            "type": "function"
        },
        {
            "inputs": [
                {
                    "internalType": "uint256",
                    "name": "",
                    "type": "uint256"
                }
            ],
            "name": "activos",
            "outputs": [
                {
                    "internalType": "address",
                    "name": "creator",
                    "type": "address"
                },
                {
                    "internalType": "uint256",
                    "name": "idUser",
                    "type": "uint256"
                },
                {
                    "internalType": "enum stockenCapital.Category",
                    "name": "category",
                    "type": "uint8"
                },
                {
                    "internalType": "string",
                    "name": "info",
                    "type": "string"
                },
                {
                    "internalType": "string",
                    "name": "titulo",
                    "type": "string"
                }
            ],
            "stateMutability": "view",
            "type": "function"
        },
        {
            "inputs": [
                {
                    "internalType": "uint256",
                    "name": "",
                    "type": "uint256"
                },
                {
                    "internalType": "uint256",
                    "name": "",
                    "type": "uint256"
                }
            ],
            "name": "activosByUser",
            "outputs": [
                {
                    "internalType": "address",
                    "name": "creator",
                    "type": "address"
                },
                {
                    "internalType": "uint256",
                    "name": "idUser",
                    "type": "uint256"
                },
                {
                    "internalType": "enum stockenCapital.Category",
                    "name": "category",
                    "type": "uint8"
                },
                {
                    "internalType": "string",
                    "name": "info",
                    "type": "string"
                },
                {
                    "internalType": "string",
                    "name": "titulo",
                    "type": "string"
                }
            ],
            "stateMutability": "view",
            "type": "function"
        },
        {
            "inputs": [
                {
                    "internalType": "address",
                    "name": "account",
                    "type": "address"
                },
                {
                    "internalType": "uint256",
                    "name": "id",
                    "type": "uint256"
                }
            ],
            "name": "balanceOf",
            "outputs": [
                {
                    "internalType": "uint256",
                    "name": "",
                    "type": "uint256"
                }
            ],
            "stateMutability": "view",
            "type": "function"
        },
        {
            "inputs": [
                {
                    "internalType": "address[]",
                    "name": "accounts",
                    "type": "address[]"
                },
                {
                    "internalType": "uint256[]",
                    "name": "ids",
                    "type": "uint256[]"
                }
            ],
            "name": "balanceOfBatch",
            "outputs": [
                {
                    "internalType": "uint256[]",
                    "name": "",
                    "type": "uint256[]"
                }
            ],
            "stateMutability": "view",
            "type": "function"
        },
        {
            "inputs": [
                {
                    "internalType": "address",
                    "name": "account",
                    "type": "address"
                },
                {
                    "internalType": "uint256",
                    "name": "id",
                    "type": "uint256"
                },
                {
                    "internalType": "uint256",
                    "name": "value",
                    "type": "uint256"
                }
            ],
            "name": "burn",
            "outputs": [],
            "stateMutability": "nonpayable",
            "type": "function"
        },
        {
            "inputs": [
                {
                    "internalType": "address",
                    "name": "account",
                    "type": "address"
                },
                {
                    "internalType": "uint256[]",
                    "name": "ids",
                    "type": "uint256[]"
                },
                {
                    "internalType": "uint256[]",
                    "name": "values",
                    "type": "uint256[]"
                }
            ],
            "name": "burnBatch",
            "outputs": [],
            "stateMutability": "nonpayable",
            "type": "function"
        },
        {
            "inputs": [
                {
                    "internalType": "address",
                    "name": "_owner",
                    "type": "address"
                },
                {
                    "internalType": "uint256",
                    "name": "tokenId",
                    "type": "uint256"
                }
            ],
            "name": "burnIt",
            "outputs": [],
            "stateMutability": "nonpayable",
            "type": "function"
        },
        {
            "inputs": [],
            "name": "contractURI",
            "outputs": [
                {
                    "internalType": "string",
                    "name": "",
                    "type": "string"
                }
            ],
            "stateMutability": "view",
            "type": "function"
        },
        {
            "inputs": [
                {
                    "internalType": "address",
                    "name": "_owner",
                    "type": "address"
                },
                {
                    "internalType": "uint256",
                    "name": "_idUser",
                    "type": "uint256"
                },
                {
                    "internalType": "enum stockenCapital.Category",
                    "name": "_category",
                    "type": "uint8"
                },
                {
                    "internalType": "string",
                    "name": "_info",
                    "type": "string"
                },
                {
                    "internalType": "string",
                    "name": "_titulo",
                    "type": "string"
                },
                {
                    "internalType": "string",
                    "name": "_ipfshash",
                    "type": "string"
                }
            ],
            "name": "createNewActivo",
            "outputs": [
                {
                    "internalType": "uint256",
                    "name": "",
                    "type": "uint256"
                }
            ],
            "stateMutability": "nonpayable",
            "type": "function"
        },
        {
            "inputs": [],
            "name": "documentID",
            "outputs": [
                {
                    "internalType": "uint256",
                    "name": "",
                    "type": "uint256"
                }
            ],
            "stateMutability": "view",
            "type": "function"
        },
        {
            "inputs": [
                {
                    "internalType": "uint256",
                    "name": "",
                    "type": "uint256"
                }
            ],
            "name": "documentos",
            "outputs": [
                {
                    "internalType": "uint256",
                    "name": "creationDate",
                    "type": "uint256"
                },
                {
                    "internalType": "uint256",
                    "name": "id",
                    "type": "uint256"
                },
                {
                    "internalType": "string",
                    "name": "hashDocument",
                    "type": "string"
                }
            ],
            "stateMutability": "view",
            "type": "function"
        },
        {
            "inputs": [
                {
                    "internalType": "uint256",
                    "name": "",
                    "type": "uint256"
                },
                {
                    "internalType": "uint256",
                    "name": "",
                    "type": "uint256"
                }
            ],
            "name": "documentosByUser",
            "outputs": [
                {
                    "internalType": "uint256",
                    "name": "creationDate",
                    "type": "uint256"
                },
                {
                    "internalType": "uint256",
                    "name": "id",
                    "type": "uint256"
                },
                {
                    "internalType": "string",
                    "name": "hashDocument",
                    "type": "string"
                }
            ],
            "stateMutability": "view",
            "type": "function"
        },
        {
            "inputs": [
                {
                    "internalType": "uint256",
                    "name": "tokenId",
                    "type": "uint256"
                }
            ],
            "name": "getActivo",
            "outputs": [
                {
                    "components": [
                        {
                            "internalType": "address",
                            "name": "creator",
                            "type": "address"
                        },
                        {
                            "internalType": "uint256",
                            "name": "idUser",
                            "type": "uint256"
                        },
                        {
                            "internalType": "enum stockenCapital.Category",
                            "name": "category",
                            "type": "uint8"
                        },
                        {
                            "internalType": "string",
                            "name": "info",
                            "type": "string"
                        },
                        {
                            "internalType": "string",
                            "name": "titulo",
                            "type": "string"
                        }
                    ],
                    "internalType": "struct stockenCapital.TokenData",
                    "name": "",
                    "type": "tuple"
                }
            ],
            "stateMutability": "view",
            "type": "function"
        },
        {
            "inputs": [
                {
                    "internalType": "uint256",
                    "name": "_userId",
                    "type": "uint256"
                }
            ],
            "name": "getActivosByUser",
            "outputs": [
                {
                    "components": [
                        {
                            "internalType": "address",
                            "name": "creator",
                            "type": "address"
                        },
                        {
                            "internalType": "uint256",
                            "name": "idUser",
                            "type": "uint256"
                        },
                        {
                            "internalType": "enum stockenCapital.Category",
                            "name": "category",
                            "type": "uint8"
                        },
                        {
                            "internalType": "string",
                            "name": "info",
                            "type": "string"
                        },
                        {
                            "internalType": "string",
                            "name": "titulo",
                            "type": "string"
                        }
                    ],
                    "internalType": "struct stockenCapital.TokenData[]",
                    "name": "",
                    "type": "tuple[]"
                }
            ],
            "stateMutability": "view",
            "type": "function"
        },
        {
            "inputs": [
                {
                    "internalType": "uint256",
                    "name": "_documentoID",
                    "type": "uint256"
                }
            ],
            "name": "getDocumentos",
            "outputs": [
                {
                    "components": [
                        {
                            "internalType": "uint256",
                            "name": "creationDate",
                            "type": "uint256"
                        },
                        {
                            "internalType": "uint256",
                            "name": "id",
                            "type": "uint256"
                        },
                        {
                            "internalType": "uint256[]",
                            "name": "userIds",
                            "type": "uint256[]"
                        },
                        {
                            "internalType": "string",
                            "name": "hashDocument",
                            "type": "string"
                        }
                    ],
                    "internalType": "struct stockenCapital.Documento",
                    "name": "",
                    "type": "tuple"
                }
            ],
            "stateMutability": "view",
            "type": "function"
        },
        {
            "inputs": [
                {
                    "internalType": "uint256",
                    "name": "_userId",
                    "type": "uint256"
                }
            ],
            "name": "getDocumentosByUser",
            "outputs": [
                {
                    "components": [
                        {
                            "internalType": "uint256",
                            "name": "creationDate",
                            "type": "uint256"
                        },
                        {
                            "internalType": "uint256",
                            "name": "id",
                            "type": "uint256"
                        },
                        {
                            "internalType": "uint256[]",
                            "name": "userIds",
                            "type": "uint256[]"
                        },
                        {
                            "internalType": "string",
                            "name": "hashDocument",
                            "type": "string"
                        }
                    ],
                    "internalType": "struct stockenCapital.Documento[]",
                    "name": "",
                    "type": "tuple[]"
                }
            ],
            "stateMutability": "view",
            "type": "function"
        },
        {
            "inputs": [
                {
                    "internalType": "bytes32",
                    "name": "role",
                    "type": "bytes32"
                }
            ],
            "name": "getRoleAdmin",
            "outputs": [
                {
                    "internalType": "bytes32",
                    "name": "",
                    "type": "bytes32"
                }
            ],
            "stateMutability": "view",
            "type": "function"
        },
        {
            "inputs": [
                {
                    "internalType": "bytes32",
                    "name": "role",
                    "type": "bytes32"
                },
                {
                    "internalType": "address",
                    "name": "account",
                    "type": "address"
                }
            ],
            "name": "grantRole",
            "outputs": [],
            "stateMutability": "nonpayable",
            "type": "function"
        },
        {
            "inputs": [
                {
                    "internalType": "bytes32",
                    "name": "role",
                    "type": "bytes32"
                },
                {
                    "internalType": "address",
                    "name": "account",
                    "type": "address"
                }
            ],
            "name": "hasRole",
            "outputs": [
                {
                    "internalType": "bool",
                    "name": "",
                    "type": "bool"
                }
            ],
            "stateMutability": "view",
            "type": "function"
        },
        {
            "inputs": [],
            "name": "id",
            "outputs": [
                {
                    "internalType": "uint256",
                    "name": "",
                    "type": "uint256"
                }
            ],
            "stateMutability": "view",
            "type": "function"
        },
        {
            "inputs": [
                {
                    "internalType": "uint256",
                    "name": "",
                    "type": "uint256"
                }
            ],
            "name": "ipfsHashes",
            "outputs": [
                {
                    "internalType": "string",
                    "name": "",
                    "type": "string"
                }
            ],
            "stateMutability": "view",
            "type": "function"
        },
        {
            "inputs": [
                {
                    "internalType": "address",
                    "name": "account",
                    "type": "address"
                },
                {
                    "internalType": "address",
                    "name": "operator",
                    "type": "address"
                }
            ],
            "name": "isApprovedForAll",
            "outputs": [
                {
                    "internalType": "bool",
                    "name": "",
                    "type": "bool"
                }
            ],
            "stateMutability": "view",
            "type": "function"
        },
        {
            "inputs": [
                {
                    "internalType": "bytes32",
                    "name": "role",
                    "type": "bytes32"
                },
                {
                    "internalType": "address",
                    "name": "account",
                    "type": "address"
                }
            ],
            "name": "renounceRole",
            "outputs": [],
            "stateMutability": "nonpayable",
            "type": "function"
        },
        {
            "inputs": [
                {
                    "internalType": "bytes32",
                    "name": "role",
                    "type": "bytes32"
                },
                {
                    "internalType": "address",
                    "name": "account",
                    "type": "address"
                }
            ],
            "name": "revokeRole",
            "outputs": [],
            "stateMutability": "nonpayable",
            "type": "function"
        },
        {
            "inputs": [
                {
                    "internalType": "address",
                    "name": "from",
                    "type": "address"
                },
                {
                    "internalType": "address",
                    "name": "to",
                    "type": "address"
                },
                {
                    "internalType": "uint256[]",
                    "name": "ids",
                    "type": "uint256[]"
                },
                {
                    "internalType": "uint256[]",
                    "name": "amounts",
                    "type": "uint256[]"
                },
                {
                    "internalType": "bytes",
                    "name": "data",
                    "type": "bytes"
                }
            ],
            "name": "safeBatchTransferFrom",
            "outputs": [],
            "stateMutability": "nonpayable",
            "type": "function"
        },
        {
            "inputs": [
                {
                    "internalType": "address",
                    "name": "from",
                    "type": "address"
                },
                {
                    "internalType": "address",
                    "name": "to",
                    "type": "address"
                },
                {
                    "internalType": "uint256",
                    "name": "id",
                    "type": "uint256"
                },
                {
                    "internalType": "uint256",
                    "name": "amount",
                    "type": "uint256"
                },
                {
                    "internalType": "bytes",
                    "name": "data",
                    "type": "bytes"
                }
            ],
            "name": "safeTransferFrom",
            "outputs": [],
            "stateMutability": "nonpayable",
            "type": "function"
        },
        {
            "inputs": [
                {
                    "internalType": "address",
                    "name": "operator",
                    "type": "address"
                },
                {
                    "internalType": "bool",
                    "name": "approved",
                    "type": "bool"
                }
            ],
            "name": "setApprovalForAll",
            "outputs": [],
            "stateMutability": "nonpayable",
            "type": "function"
        },
        {
            "inputs": [
                {
                    "internalType": "bytes4",
                    "name": "interfaceId",
                    "type": "bytes4"
                }
            ],
            "name": "supportsInterface",
            "outputs": [
                {
                    "internalType": "bool",
                    "name": "",
                    "type": "bool"
                }
            ],
            "stateMutability": "view",
            "type": "function"
        },
        {
            "inputs": [
                {
                    "internalType": "uint256",
                    "name": "",
                    "type": "uint256"
                }
            ],
            "name": "uri",
            "outputs": [
                {
                    "internalType": "string",
                    "name": "",
                    "type": "string"
                }
            ],
            "stateMutability": "view",
            "type": "function"
        }
    ],
    "bytecode": "6080604052600160045560016005553480156200001b57600080fd5b50604051620036b8380380620036b88339810160408190526200003e91620001c5565b6040805160208101909152600081526200005881620000ce565b5062000066600033620000e0565b604080518082019091526007815266697066733a2f2f60c81b60208201526006906200009390826200030c565b5080604051602001620000a79190620003d8565b60405160208183030381529060405260079081620000c691906200030c565b505062000409565b6003620000dc82826200030c565b5050565b6000828152602081815260408083206001600160a01b0385168452909152902054620000dc908390839060ff16620000dc576000828152602081815260408083206001600160a01b03851684529091529020805460ff19166001179055620001453390565b6001600160a01b0316816001600160a01b0316837f2f8788117e7eff1d82e926ec794901d17c78024a50270940304540a733656f0d60405160405180910390a45050565b634e487b7160e01b600052604160045260246000fd5b60005b83811015620001bc578181015183820152602001620001a2565b50506000910152565b600060208284031215620001d857600080fd5b81516001600160401b0380821115620001f057600080fd5b818401915084601f8301126200020557600080fd5b8151818111156200021a576200021a62000189565b604051601f8201601f19908116603f0116810190838211818310171562000245576200024562000189565b816040528281528760208487010111156200025f57600080fd5b620002728360208301602088016200019f565b979650505050505050565b600181811c908216806200029257607f821691505b602082108103620002b357634e487b7160e01b600052602260045260246000fd5b50919050565b601f8211156200030757600081815260208120601f850160051c81016020861015620002e25750805b601f850160051c820191505b818110156200030357828155600101620002ee565b5050505b505050565b81516001600160401b0381111562000328576200032862000189565b62000340816200033984546200027d565b84620002b9565b602080601f8311600181146200037857600084156200035f5750858301515b600019600386901b1c1916600185901b17855562000303565b600085815260208120601f198616915b82811015620003a95788860151825594840194600190910190840162000388565b5085821015620003c85787850151600019600388901b60f8161c191681555b5050505050600190811b01905550565b66697066733a2f2f60c81b815260008251620003fc8160078501602087016200019f565b9190910160070192915050565b61329f80620004196000396000f3fe608060405234801561001057600080fd5b50600436106101d95760003560e01c80636b20c45411610104578063bb674f20116100a2578063e985e9c511610071578063e985e9c514610460578063f242432a1461049c578063f3128106146104af578063f5298aca146104b857600080fd5b8063bb674f2014610412578063c416195414610425578063d547741f14610445578063e8a3d4851461045857600080fd5b8063a217fddf116100de578063a217fddf146103db578063a22cb465146103e3578063a4de2f5c146103f6578063af640d0f1461040957600080fd5b80636b20c4541461039357806391d14854146103a65780639a7ac78d146103b957600080fd5b80632f2ff15d1161017c57806340881a921161014b57806340881a921461032d578063475bab651461034d5780634e1273f41461036057806360ed51c31461038057600080fd5b80632f2ff15d146102c3578063306a5af9146102d657806336568abe146102f65780633d5e19301461030957600080fd5b806308e528ac116101b857806308e528ac146102585780630e89341c1461026d578063248a9ca31461028d5780632eb2c2d6146102b057600080fd5b8062fdd58e146101de57806301ffc9a7146102045780630655ea2414610238575b600080fd5b6101f16101ec3660046122ff565b6104cb565b6040519081526020015b60405180910390f35b61022861021236600461233f565b6001600160e01b0319166301ffc9a760e01b1490565b60405190151581526020016101fb565b61024b61024636600461235c565b610566565b6040516101fb9190612465565b61026b6102663660046122ff565b61071e565b005b61028061027b36600461235c565b6107c6565b6040516101fb9190612478565b6101f161029b36600461235c565b60009081526020819052604090206001015490565b61026b6102be3660046125d4565b61085a565b61026b6102d136600461267d565b6108b7565b6102e96102e436600461235c565b6108e1565b6040516101fb9190612726565b61026b61030436600461267d565b610997565b61031c61031736600461235c565b610a15565b6040516101fb959493929190612739565b61034061033b36600461235c565b610b64565b6040516101fb919061278d565b6101f161035b3660046127ef565b610d49565b61037361036e3660046128a6565b610fd4565b6040516101fb9190612970565b61031c61038e366004612983565b6110fd565b61026b6103a13660046129a5565b611159565b6102286103b436600461267d565b61119c565b6103cc6103c7366004612983565b6111c5565b6040516101fb93929190612a18565b6101f1600081565b61026b6103f1366004612a37565b611294565b61028061040436600461235c565b61129f565b6101f160045481565b6103cc61042036600461235c565b611339565b61043861043336600461235c565b611361565b6040516101fb9190612a73565b61026b61045336600461267d565b6114c6565b6102806114eb565b61022861046e366004612ac8565b6001600160a01b03918216600090815260026020908152604080832093909416825291909152205460ff1690565b61026b6104aa366004612af2565b61157d565b6101f160055481565b61026b6104c6366004612b56565b6115d3565b60006001600160a01b03831661053b5760405162461bcd60e51b815260206004820152602a60248201527f455243313135353a2061646472657373207a65726f206973206e6f742061207660448201526930b634b21037bbb732b960b11b60648201526084015b60405180910390fd5b5060008181526001602090815260408083206001600160a01b03861684529091529020545b92915050565b6040805160a08082018352600080835260208084018290528385018290526060808501819052608085015285825260098152908490208451928301855280546001600160a01b0316835260018101549183019190915260028082015493949293919284019160ff16908111156105de576105de612375565b60028111156105ef576105ef612375565b815260200160038201805461060390612b89565b80601f016020809104026020016040519081016040528092919081815260200182805461062f90612b89565b801561067c5780601f106106515761010080835404028352916020019161067c565b820191906000526020600020905b81548152906001019060200180831161065f57829003601f168201915b5050505050815260200160048201805461069590612b89565b80601f01602080910402602001604051908101604052809291908181526020018280546106c190612b89565b801561070e5780601f106106e35761010080835404028352916020019161070e565b820191906000526020600020905b8154815290600101906020018083116106f157829003601f168201915b5050505050815250509050919050565b61072960003361119c565b61076d5760405162461bcd60e51b81526020600482015260156024820152744f6e6c79206f776e65722063616e2061636365737360581b6044820152606401610532565b6107808282670de0b6b3a76400006115d3565b604080516001600160a01b0384168152602081018390527f47fcf018359677711689032b13309287d4aa38039085d16a7d883068a788587b910160405180910390a15050565b6060600380546107d590612b89565b80601f016020809104026020016040519081016040528092919081815260200182805461080190612b89565b801561084e5780601f106108235761010080835404028352916020019161084e565b820191906000526020600020905b81548152906001019060200180831161083157829003601f168201915b50505050509050919050565b6001600160a01b0385163314806108765750610876853361046e565b80610887575061088760003361119c565b6108a35760405162461bcd60e51b815260040161053290612bc3565b6108b08585858585611627565b5050505050565b6000828152602081905260409020600101546108d2816117c6565b6108dc83836117d3565b505050565b61090c6040518060800160405280600081526020016000815260200160608152602001606081525090565b6000828152600a60209081526040918290208251608081018452815481526001820154818401526002820180548551818602810186018752818152929593949386019383018282801561097e57602002820191906000526020600020905b81548152602001906001019080831161096a575b5050505050815260200160038201805461069590612b89565b6001600160a01b0381163314610a075760405162461bcd60e51b815260206004820152602f60248201527f416363657373436f6e74726f6c3a2063616e206f6e6c792072656e6f756e636560448201526e103937b632b9903337b91039b2b63360891b6064820152608401610532565b610a118282611857565b5050565b60096020526000908152604090208054600182015460028301546003840180546001600160a01b0390941694929360ff9092169291610a5390612b89565b80601f0160208091040260200160405190810160405280929190818152602001828054610a7f90612b89565b8015610acc5780601f10610aa157610100808354040283529160200191610acc565b820191906000526020600020905b815481529060010190602001808311610aaf57829003601f168201915b505050505090806004018054610ae190612b89565b80601f0160208091040260200160405190810160405280929190818152602001828054610b0d90612b89565b8015610b5a5780601f10610b2f57610100808354040283529160200191610b5a565b820191906000526020600020905b815481529060010190602001808311610b3d57829003601f168201915b5050505050905085565b6060600b6000838152602001908152602001600020805480602002602001604051908101604052809291908181526020016000905b82821015610d3e5760008481526020908190206040805160a0810182526005860290920180546001600160a01b031683526001810154938301939093526002808401549293929184019160ff1690811115610bf657610bf6612375565b6002811115610c0757610c07612375565b8152602001600382018054610c1b90612b89565b80601f0160208091040260200160405190810160405280929190818152602001828054610c4790612b89565b8015610c945780601f10610c6957610100808354040283529160200191610c94565b820191906000526020600020905b815481529060010190602001808311610c7757829003601f168201915b50505050508152602001600482018054610cad90612b89565b80601f0160208091040260200160405190810160405280929190818152602001828054610cd990612b89565b8015610d265780601f10610cfb57610100808354040283529160200191610d26565b820191906000526020600020905b815481529060010190602001808311610d0957829003601f168201915b50505050508152505081526020019060010190610b99565b505050509050919050565b6000610d55813361119c565b610d995760405162461bcd60e51b81526020600482015260156024820152744f6e6c79206f776e65722063616e2061636365737360581b6044820152606401610532565b610dbe87600454670de0b6b3a7640000604051806020016040528060008152506118bc565b6004546000908152600860205260409020610dd98382612c57565b506040518060a00160405280886001600160a01b03168152602001878152602001866002811115610e0c57610e0c612375565b815260208082018790526040918201869052600454600090815260098252829020835181546001600160a01b0319166001600160a01b0390911617815590830151600180830191909155918301516002808301805493949293909260ff19909116918490811115610e7f57610e7f612375565b021790555060608201516003820190610e989082612c57565b5060808201516004820190610ead9082612c57565b5050506000868152600b6020908152604080832060045484526009835290832081546001818101845592855292909320835460059093020180546001600160a01b0319166001600160a01b039093169290921782558083015482820155600280840154818401805460ff90921693909260ff19909216918490811115610f3557610f35612375565b0217905550600381810190610f4c90840182612d16565b50600481810190610f5f90840182612d16565b5050507fb79adcf9cd4f54d31599ba94ff50e6f6bfd2b4ada6cd76d2ea5651791124187d8787868689600454604051610f9d96959493929190612de8565b60405180910390a160048054906000610fb583612e58565b91905055506001600454610fc99190612e71565b979650505050505050565b606081518351146110395760405162461bcd60e51b815260206004820152602960248201527f455243313135353a206163636f756e747320616e6420696473206c656e677468604482015268040dad2e6dac2e8c6d60bb1b6064820152608401610532565b600083516001600160401b038111156110545761105461248b565b60405190808252806020026020018201604052801561107d578160200160208202803683370190505b50905060005b84518110156110f5576110c88582815181106110a1576110a1612e84565b60200260200101518583815181106110bb576110bb612e84565b60200260200101516104cb565b8282815181106110da576110da612e84565b60209081029190910101526110ee81612e58565b9050611083565b509392505050565b600b602052816000526040600020818154811061111957600080fd5b600091825260209091206005909102018054600182015460028301546003840180546001600160a01b03909416965091945060ff169291610a5390612b89565b6001600160a01b0383163314806111755750611175833361046e565b6111915760405162461bcd60e51b815260040161053290612bc3565b6108dc8383836119d2565b6000918252602082815260408084206001600160a01b0393909316845291905290205460ff1690565b600c60205281600052604060002081815481106111e157600080fd5b90600052602060002090600402016000915091505080600001549080600101549080600301805461121190612b89565b80601f016020809104026020016040519081016040528092919081815260200182805461123d90612b89565b801561128a5780601f1061125f5761010080835404028352916020019161128a565b820191906000526020600020905b81548152906001019060200180831161126d57829003601f168201915b5050505050905083565b610a11338383611b60565b600860205260009081526040902080546112b890612b89565b80601f01602080910402602001604051908101604052809291908181526020018280546112e490612b89565b80156113315780601f1061130657610100808354040283529160200191611331565b820191906000526020600020905b81548152906001019060200180831161131457829003601f168201915b505050505081565b600a602052600090815260409020805460018201546003830180549293919261121190612b89565b6060600c6000838152602001908152602001600020805480602002602001604051908101604052809291908181526020016000905b82821015610d3e578382906000526020600020906004020160405180608001604052908160008201548152602001600182015481526020016002820180548060200260200160405190810160405280929190818152602001828054801561141c57602002820191906000526020600020905b815481526020019060010190808311611408575b5050505050815260200160038201805461143590612b89565b80601f016020809104026020016040519081016040528092919081815260200182805461146190612b89565b80156114ae5780601f10611483576101008083540402835291602001916114ae565b820191906000526020600020905b81548152906001019060200180831161149157829003601f168201915b50505050508152505081526020019060010190611396565b6000828152602081905260409020600101546114e1816117c6565b6108dc8383611857565b6060600780546114fa90612b89565b80601f016020809104026020016040519081016040528092919081815260200182805461152690612b89565b80156115735780601f1061154857610100808354040283529160200191611573565b820191906000526020600020905b81548152906001019060200180831161155657829003601f168201915b5050505050905090565b6001600160a01b0385163314806115995750611599853361046e565b806115aa57506115aa60003361119c565b6115c65760405162461bcd60e51b815260040161053290612bc3565b6108b08585858585611c40565b6001600160a01b0383163314806115ef57506115ef833361046e565b80611600575061160060003361119c565b61161c5760405162461bcd60e51b815260040161053290612bc3565b6108dc838383611d6e565b81518351146116485760405162461bcd60e51b815260040161053290612e9a565b6001600160a01b03841661166e5760405162461bcd60e51b815260040161053290612ee2565b3360005b845181101561175857600085828151811061168f5761168f612e84565b6020026020010151905060008583815181106116ad576116ad612e84565b60209081029190910181015160008481526001835260408082206001600160a01b038e1683529093529190912054909150818110156116fe5760405162461bcd60e51b815260040161053290612f27565b60008381526001602090815260408083206001600160a01b038e8116855292528083208585039055908b1682528120805484929061173d908490612f71565b925050819055505050508061175190612e58565b9050611672565b50846001600160a01b0316866001600160a01b0316826001600160a01b03167f4a39dc06d4c0dbc64b70af90fd698a233a518aa5d07e595d983b8c0526c8f7fb87876040516117a8929190612f84565b60405180910390a46117be818787878787611e75565b505050505050565b6117d08133611fd0565b50565b6117dd828261119c565b610a11576000828152602081815260408083206001600160a01b03851684529091529020805460ff191660011790556118133390565b6001600160a01b0316816001600160a01b0316837f2f8788117e7eff1d82e926ec794901d17c78024a50270940304540a733656f0d60405160405180910390a45050565b611861828261119c565b15610a11576000828152602081815260408083206001600160a01b0385168085529252808320805460ff1916905551339285917ff6391f5c32d9c69d2a47ea670b442974b53935d1edc7fd64eb21e047a839171b9190a45050565b6001600160a01b03841661191c5760405162461bcd60e51b815260206004820152602160248201527f455243313135353a206d696e7420746f20746865207a65726f206164647265736044820152607360f81b6064820152608401610532565b33600061192885612029565b9050600061193585612029565b905060008681526001602090815260408083206001600160a01b038b16845290915281208054879290611969908490612f71565b909155505060408051878152602081018790526001600160a01b03808a1692600092918716917fc3d58168c5ae7397731d063d5bbf3d657854427343f4c083240f7aacaa2d0f62910160405180910390a46119c983600089898989612074565b50505050505050565b6001600160a01b0383166119f85760405162461bcd60e51b815260040161053290612fa9565b8051825114611a195760405162461bcd60e51b815260040161053290612e9a565b604080516020810190915260009081905233905b8351811015611af2576000848281518110611a4a57611a4a612e84565b602002602001015190506000848381518110611a6857611a68612e84565b60209081029190910181015160008481526001835260408082206001600160a01b038c168352909352919091205490915081811015611ab95760405162461bcd60e51b815260040161053290612fec565b60009283526001602090815260408085206001600160a01b038b1686529091529092209103905580611aea81612e58565b915050611a2d565b5060006001600160a01b0316846001600160a01b0316826001600160a01b03167f4a39dc06d4c0dbc64b70af90fd698a233a518aa5d07e595d983b8c0526c8f7fb8686604051611b43929190612f84565b60405180910390a460408051602081019091526000905250505050565b816001600160a01b0316836001600160a01b031603611bd35760405162461bcd60e51b815260206004820152602960248201527f455243313135353a2073657474696e6720617070726f76616c20737461747573604482015268103337b91039b2b63360b91b6064820152608401610532565b6001600160a01b03838116600081815260026020908152604080832094871680845294825291829020805460ff191686151590811790915591519182527f17307eab39ab6107e8899845ad3d59bd9653f200f220920489ca2b5937696c31910160405180910390a3505050565b6001600160a01b038416611c665760405162461bcd60e51b815260040161053290612ee2565b336000611c7285612029565b90506000611c7f85612029565b905060008681526001602090815260408083206001600160a01b038c16845290915290205485811015611cc45760405162461bcd60e51b815260040161053290612f27565b60008781526001602090815260408083206001600160a01b038d8116855292528083208985039055908a16825281208054889290611d03908490612f71565b909155505060408051888152602081018890526001600160a01b03808b16928c821692918816917fc3d58168c5ae7397731d063d5bbf3d657854427343f4c083240f7aacaa2d0f62910160405180910390a4611d63848a8a8a8a8a612074565b505050505050505050565b6001600160a01b038316611d945760405162461bcd60e51b815260040161053290612fa9565b336000611da084612029565b90506000611dad84612029565b6040805160208082018352600091829052888252600181528282206001600160a01b038b1683529052205490915084811015611dfb5760405162461bcd60e51b815260040161053290612fec565b60008681526001602090815260408083206001600160a01b038b81168086529184528285208a8703905582518b81529384018a90529092908816917fc3d58168c5ae7397731d063d5bbf3d657854427343f4c083240f7aacaa2d0f62910160405180910390a46040805160208101909152600090526119c9565b6001600160a01b0384163b156117be5760405163bc197c8160e01b81526001600160a01b0385169063bc197c8190611eb99089908990889088908890600401613030565b6020604051808303816000875af1925050508015611ef4575060408051601f3d908101601f19168201909252611ef191810190613082565b60015b611fa057611f0061309f565b806308c379a003611f395750611f146130bb565b80611f1f5750611f3b565b8060405162461bcd60e51b81526004016105329190612478565b505b60405162461bcd60e51b815260206004820152603460248201527f455243313135353a207472616e7366657220746f206e6f6e2d455243313135356044820152732932b1b2b4bb32b91034b6b83632b6b2b73a32b960611b6064820152608401610532565b6001600160e01b0319811663bc197c8160e01b146119c95760405162461bcd60e51b815260040161053290613144565b611fda828261119c565b610a1157611fe78161212f565b611ff2836020612141565b60405160200161200392919061318c565b60408051601f198184030181529082905262461bcd60e51b825261053291600401612478565b6040805160018082528183019092526060916000919060208083019080368337019050509050828160008151811061206357612063612e84565b602090810291909101015292915050565b6001600160a01b0384163b156117be5760405163f23a6e6160e01b81526001600160a01b0385169063f23a6e61906120b89089908990889088908890600401613201565b6020604051808303816000875af19250505080156120f3575060408051601f3d908101601f191682019092526120f091810190613082565b60015b6120ff57611f0061309f565b6001600160e01b0319811663f23a6e6160e01b146119c95760405162461bcd60e51b815260040161053290613144565b60606105606001600160a01b03831660145b6060600061215083600261323b565b61215b906002612f71565b6001600160401b038111156121725761217261248b565b6040519080825280601f01601f19166020018201604052801561219c576020820181803683370190505b509050600360fc1b816000815181106121b7576121b7612e84565b60200101906001600160f81b031916908160001a905350600f60fb1b816001815181106121e6576121e6612e84565b60200101906001600160f81b031916908160001a905350600061220a84600261323b565b612215906001612f71565b90505b600181111561228d576f181899199a1a9b1b9c1cb0b131b232b360811b85600f166010811061224957612249612e84565b1a60f81b82828151811061225f5761225f612e84565b60200101906001600160f81b031916908160001a90535060049490941c9361228681613252565b9050612218565b5083156122dc5760405162461bcd60e51b815260206004820181905260248201527f537472696e67733a20686578206c656e67746820696e73756666696369656e746044820152606401610532565b9392505050565b80356001600160a01b03811681146122fa57600080fd5b919050565b6000806040838503121561231257600080fd5b61231b836122e3565b946020939093013593505050565b6001600160e01b0319811681146117d057600080fd5b60006020828403121561235157600080fd5b81356122dc81612329565b60006020828403121561236e57600080fd5b5035919050565b634e487b7160e01b600052602160045260246000fd5b600381106123a957634e487b7160e01b600052602160045260246000fd5b9052565b60005b838110156123c85781810151838201526020016123b0565b50506000910152565b600081518084526123e98160208601602086016123ad565b601f01601f19169290920160200192915050565b80516001600160a01b03168252602080820151908301526040808201516000916124299085018261238b565b50606082015160a0606085015261244360a08501826123d1565b90506080830151848203608086015261245c82826123d1565b95945050505050565b6020815260006122dc60208301846123fd565b6020815260006122dc60208301846123d1565b634e487b7160e01b600052604160045260246000fd5b601f8201601f191681016001600160401b03811182821017156124c6576124c661248b565b6040525050565b60006001600160401b038211156124e6576124e661248b565b5060051b60200190565b600082601f83011261250157600080fd5b8135602061250e826124cd565b60405161251b82826124a1565b83815260059390931b850182019282810191508684111561253b57600080fd5b8286015b84811015612556578035835291830191830161253f565b509695505050505050565b600082601f83011261257257600080fd5b81356001600160401b0381111561258b5761258b61248b565b6040516125a2601f8301601f1916602001826124a1565b8181528460208386010111156125b757600080fd5b816020850160208301376000918101602001919091529392505050565b600080600080600060a086880312156125ec57600080fd5b6125f5866122e3565b9450612603602087016122e3565b935060408601356001600160401b038082111561261f57600080fd5b61262b89838a016124f0565b9450606088013591508082111561264157600080fd5b61264d89838a016124f0565b9350608088013591508082111561266357600080fd5b5061267088828901612561565b9150509295509295909350565b6000806040838503121561269057600080fd5b823591506126a0602084016122e3565b90509250929050565b600081518084526020808501945080840160005b838110156126d9578151875295820195908201906001016126bd565b509495945050505050565b8051825260208101516020830152600060408201516080604085015261270d60808501826126a9565b90506060830151848203606086015261245c82826123d1565b6020815260006122dc60208301846126e4565b6001600160a01b038616815260208101859052612759604082018561238b565b60a06060820152600061276f60a08301856123d1565b828103608084015261278181856123d1565b98975050505050505050565b6000602080830181845280855180835260408601915060408160051b870101925083870160005b828110156127e257603f198886030184526127d08583516123fd565b945092850192908501906001016127b4565b5092979650505050505050565b60008060008060008060c0878903121561280857600080fd5b612811876122e3565b95506020870135945060408701356003811061282c57600080fd5b935060608701356001600160401b038082111561284857600080fd5b6128548a838b01612561565b9450608089013591508082111561286a57600080fd5b6128768a838b01612561565b935060a089013591508082111561288c57600080fd5b5061289989828a01612561565b9150509295509295509295565b600080604083850312156128b957600080fd5b82356001600160401b03808211156128d057600080fd5b818501915085601f8301126128e457600080fd5b813560206128f1826124cd565b6040516128fe82826124a1565b83815260059390931b850182019282810191508984111561291e57600080fd5b948201945b8386101561294357612934866122e3565b82529482019490820190612923565b9650508601359250508082111561295957600080fd5b50612966858286016124f0565b9150509250929050565b6020815260006122dc60208301846126a9565b6000806040838503121561299657600080fd5b50508035926020909101359150565b6000806000606084860312156129ba57600080fd5b6129c3846122e3565b925060208401356001600160401b03808211156129df57600080fd5b6129eb878388016124f0565b93506040860135915080821115612a0157600080fd5b50612a0e868287016124f0565b9150509250925092565b83815282602082015260606040820152600061245c60608301846123d1565b60008060408385031215612a4a57600080fd5b612a53836122e3565b915060208301358015158114612a6857600080fd5b809150509250929050565b6000602080830181845280855180835260408601915060408160051b870101925083870160005b828110156127e257603f19888603018452612ab68583516126e4565b94509285019290850190600101612a9a565b60008060408385031215612adb57600080fd5b612ae4836122e3565b91506126a0602084016122e3565b600080600080600060a08688031215612b0a57600080fd5b612b13866122e3565b9450612b21602087016122e3565b9350604086013592506060860135915060808601356001600160401b03811115612b4a57600080fd5b61267088828901612561565b600080600060608486031215612b6b57600080fd5b612b74846122e3565b95602085013595506040909401359392505050565b600181811c90821680612b9d57607f821691505b602082108103612bbd57634e487b7160e01b600052602260045260246000fd5b50919050565b6020808252602e908201527f455243313135353a2063616c6c6572206973206e6f7420746f6b656e206f776e60408201526d195c881bdc88185c1c1c9bdd995960921b606082015260800190565b601f8211156108dc57600081815260208120601f850160051c81016020861015612c385750805b601f850160051c820191505b818110156117be57828155600101612c44565b81516001600160401b03811115612c7057612c7061248b565b612c8481612c7e8454612b89565b84612c11565b602080601f831160018114612cb95760008415612ca15750858301515b600019600386901b1c1916600185901b1785556117be565b600085815260208120601f198616915b82811015612ce857888601518255948401946001909101908401612cc9565b5085821015612d065787850151600019600388901b60f8161c191681555b5050505050600190811b01905550565b818103612d21575050565b612d2b8254612b89565b6001600160401b03811115612d4257612d4261248b565b612d5081612c7e8454612b89565b6000601f821160018114612d845760008315612d6c5750848201545b600019600385901b1c1916600184901b1784556108b0565b600085815260209020601f19841690600086815260209020845b83811015612dbe5782860154825560019586019590910190602001612d9e565b5085831015612d065793015460001960f8600387901b161c19169092555050600190811b01905550565b60018060a01b038716815285602082015260c060408201526000612e0f60c08301876123d1565b8281036060840152612e2181876123d1565b915050612e31608083018561238b565b8260a0830152979650505050505050565b634e487b7160e01b600052601160045260246000fd5b600060018201612e6a57612e6a612e42565b5060010190565b8181038181111561056057610560612e42565b634e487b7160e01b600052603260045260246000fd5b60208082526028908201527f455243313135353a2069647320616e6420616d6f756e7473206c656e677468206040820152670dad2e6dac2e8c6d60c31b606082015260800190565b60208082526025908201527f455243313135353a207472616e7366657220746f20746865207a65726f206164604082015264647265737360d81b606082015260800190565b6020808252602a908201527f455243313135353a20696e73756666696369656e742062616c616e636520666f60408201526939103a3930b739b332b960b11b606082015260800190565b8082018082111561056057610560612e42565b604081526000612f9760408301856126a9565b828103602084015261245c81856126a9565b60208082526023908201527f455243313135353a206275726e2066726f6d20746865207a65726f206164647260408201526265737360e81b606082015260800190565b60208082526024908201527f455243313135353a206275726e20616d6f756e7420657863656564732062616c604082015263616e636560e01b606082015260800190565b6001600160a01b0386811682528516602082015260a06040820181905260009061305c908301866126a9565b828103606084015261306e81866126a9565b9050828103608084015261278181856123d1565b60006020828403121561309457600080fd5b81516122dc81612329565b600060033d11156130b85760046000803e5060005160e01c5b90565b600060443d10156130c95790565b6040516003193d81016004833e81513d6001600160401b0381602484011181841117156130f857505050505090565b82850191508151818111156131105750505050505090565b843d870101602082850101111561312a5750505050505090565b613139602082860101876124a1565b509095945050505050565b60208082526028908201527f455243313135353a204552433131353552656365697665722072656a656374656040820152676420746f6b656e7360c01b606082015260800190565b7f416363657373436f6e74726f6c3a206163636f756e74200000000000000000008152600083516131c48160178501602088016123ad565b7001034b99036b4b9b9b4b733903937b6329607d1b60179184019182015283516131f58160288401602088016123ad565b01602801949350505050565b6001600160a01b03868116825285166020820152604081018490526060810183905260a060808201819052600090610fc9908301846123d1565b808202811582820484141761056057610560612e42565b60008161326157613261612e42565b50600019019056fea2646970667358221220b6778814026c5a3ff9656666df6eb8220146bc3502d62544a24ffcfb9a50294564736f6c63430008130033",
    "sourcePath": "/Users/crisolcova/stockenCapital/contracts/stockenCapital.sol",
    "compiler": {
        "name": "solc",
        "version": "0.8.19+commit.7dd6d404"
    },
    "functionHashes": {
        "DEFAULT_ADMIN_ROLE()": "a217fddf",
        "activos(uint256)": "3d5e1930",
        "activosByUser(uint256,uint256)": "60ed51c3",
        "balanceOf(address,uint256)": "00fdd58e",
        "balanceOfBatch(address[],uint256[])": "4e1273f4",
        "burn(address,uint256,uint256)": "f5298aca",
        "burnBatch(address,uint256[],uint256[])": "6b20c454",
        "burnIt(address,uint256)": "08e528ac",
        "contractURI()": "e8a3d485",
        "createNewActivo(address,uint256,uint8,string,string,string)": "475bab65",
        "documentID()": "f3128106",
        "documentos(uint256)": "bb674f20",
        "documentosByUser(uint256,uint256)": "9a7ac78d",
        "getActivo(uint256)": "0655ea24",
        "getActivosByUser(uint256)": "40881a92",
        "getDocumentos(uint256)": "306a5af9",
        "getDocumentosByUser(uint256)": "c4161954",
        "getRoleAdmin(bytes32)": "248a9ca3",
        "grantRole(bytes32,address)": "2f2ff15d",
        "hasRole(bytes32,address)": "91d14854",
        "id()": "af640d0f",
        "ipfsHashes(uint256)": "a4de2f5c",
        "isApprovedForAll(address,address)": "e985e9c5",
        "renounceRole(bytes32,address)": "36568abe",
        "revokeRole(bytes32,address)": "d547741f",
        "safeBatchTransferFrom(address,address,uint256[],uint256[],bytes)": "2eb2c2d6",
        "safeTransferFrom(address,address,uint256,uint256,bytes)": "f242432a",
        "setApprovalForAll(address,bool)": "a22cb465",
        "supportsInterface(bytes4)": "01ffc9a7",
        "uri(uint256)": "0e89341c"
    },
    "gasEstimates": {
        "creation": {
            "codeDepositCost": "2591800",
            "executionCost": "infinite",
            "totalCost": "infinite"
        },
        "external": {
            "DEFAULT_ADMIN_ROLE()": "229",
            "activos(uint256)": "infinite",
            "activosByUser(uint256,uint256)": "infinite",
            "balanceOf(address,uint256)": "2726",
            "balanceOfBatch(address[],uint256[])": "infinite",
            "burn(address,uint256,uint256)": "infinite",
            "burnBatch(address,uint256[],uint256[])": "infinite",
            "burnIt(address,uint256)": "infinite",
            "contractURI()": "infinite",
            "createNewActivo(address,uint256,uint8,string,string,string)": "infinite",
            "documentID()": "2372",
            "documentos(uint256)": "infinite",
            "documentosByUser(uint256,uint256)": "infinite",
            "getActivo(uint256)": "infinite",
            "getActivosByUser(uint256)": "infinite",
            "getDocumentos(uint256)": "infinite",
            "getDocumentosByUser(uint256)": "infinite",
            "getRoleAdmin(bytes32)": "2526",
            "grantRole(bytes32,address)": "infinite",
            "hasRole(bytes32,address)": "2730",
            "id()": "2395",
            "ipfsHashes(uint256)": "infinite",
            "isApprovedForAll(address,address)": "infinite",
            "renounceRole(bytes32,address)": "29085",
            "revokeRole(bytes32,address)": "infinite",
            "safeBatchTransferFrom(address,address,uint256[],uint256[],bytes)": "infinite",
            "safeTransferFrom(address,address,uint256,uint256,bytes)": "infinite",
            "setApprovalForAll(address,bool)": "26750",
            "supportsInterface(bytes4)": "455",
            "uri(uint256)": "infinite"
        }
    }
}