{
  "address": "0x471A4cEB8c87C8e1B33a73c5431cd42015e13606",
  "abi": [
    {
      "inputs": [
        {
          "internalType": "string",
          "name": "contractUri",
          "type": "string"
        }
      ],
      "stateMutability": "nonpayable",
      "type": "constructor"
    },
    {
      "anonymous": false,
      "inputs": [
        {
          "indexed": true,
          "internalType": "address",
          "name": "account",
          "type": "address"
        },
        {
          "indexed": true,
          "internalType": "address",
          "name": "operator",
          "type": "address"
        },
        {
          "indexed": false,
          "internalType": "bool",
          "name": "approved",
          "type": "bool"
        }
      ],
      "name": "ApprovalForAll",
      "type": "event"
    },
    {
      "anonymous": false,
      "inputs": [
        {
          "indexed": true,
          "internalType": "bytes32",
          "name": "role",
          "type": "bytes32"
        },
        {
          "indexed": true,
          "internalType": "bytes32",
          "name": "previousAdminRole",
          "type": "bytes32"
        },
        {
          "indexed": true,
          "internalType": "bytes32",
          "name": "newAdminRole",
          "type": "bytes32"
        }
      ],
      "name": "RoleAdminChanged",
      "type": "event"
    },
    {
      "anonymous": false,
      "inputs": [
        {
          "indexed": true,
          "internalType": "bytes32",
          "name": "role",
          "type": "bytes32"
        },
        {
          "indexed": true,
          "internalType": "address",
          "name": "account",
          "type": "address"
        },
        {
          "indexed": true,
          "internalType": "address",
          "name": "sender",
          "type": "address"
        }
      ],
      "name": "RoleGranted",
      "type": "event"
    },
    {
      "anonymous": false,
      "inputs": [
        {
          "indexed": true,
          "internalType": "bytes32",
          "name": "role",
          "type": "bytes32"
        },
        {
          "indexed": true,
          "internalType": "address",
          "name": "account",
          "type": "address"
        },
        {
          "indexed": true,
          "internalType": "address",
          "name": "sender",
          "type": "address"
        }
      ],
      "name": "RoleRevoked",
      "type": "event"
    },
    {
      "anonymous": false,
      "inputs": [
        {
          "indexed": true,
          "internalType": "address",
          "name": "operator",
          "type": "address"
        },
        {
          "indexed": true,
          "internalType": "address",
          "name": "from",
          "type": "address"
        },
        {
          "indexed": true,
          "internalType": "address",
          "name": "to",
          "type": "address"
        },
        {
          "indexed": false,
          "internalType": "uint256[]",
          "name": "ids",
          "type": "uint256[]"
        },
        {
          "indexed": false,
          "internalType": "uint256[]",
          "name": "values",
          "type": "uint256[]"
        }
      ],
      "name": "TransferBatch",
      "type": "event"
    },
    {
      "anonymous": false,
      "inputs": [
        {
          "indexed": true,
          "internalType": "address",
          "name": "operator",
          "type": "address"
        },
        {
          "indexed": true,
          "internalType": "address",
          "name": "from",
          "type": "address"
        },
        {
          "indexed": true,
          "internalType": "address",
          "name": "to",
          "type": "address"
        },
        {
          "indexed": false,
          "internalType": "uint256",
          "name": "id",
          "type": "uint256"
        },
        {
          "indexed": false,
          "internalType": "uint256",
          "name": "value",
          "type": "uint256"
        }
      ],
      "name": "TransferSingle",
      "type": "event"
    },
    {
      "anonymous": false,
      "inputs": [
        {
          "indexed": false,
          "internalType": "string",
          "name": "value",
          "type": "string"
        },
        {
          "indexed": true,
          "internalType": "uint256",
          "name": "id",
          "type": "uint256"
        }
      ],
      "name": "URI",
      "type": "event"
    },
    {
      "anonymous": false,
      "inputs": [
        {
          "indexed": false,
          "internalType": "address",
          "name": "creator",
          "type": "address"
        },
        {
          "indexed": false,
          "internalType": "uint256",
          "name": "amount",
          "type": "uint256"
        },
        {
          "indexed": false,
          "internalType": "uint256",
          "name": "id",
          "type": "uint256"
        }
      ],
      "name": "burnNFT",
      "type": "event"
    },
    {
      "anonymous": false,
      "inputs": [
        {
          "indexed": false,
          "internalType": "address",
          "name": "creator",
          "type": "address"
        },
        {
          "indexed": false,
          "internalType": "uint256",
          "name": "amount",
          "type": "uint256"
        },
        {
          "indexed": false,
          "internalType": "uint256",
          "name": "id",
          "type": "uint256"
        }
      ],
      "name": "newNFT",
      "type": "event"
    },
    {
      "inputs": [],
      "name": "DEFAULT_ADMIN_ROLE",
      "outputs": [
        {
          "internalType": "bytes32",
          "name": "",
          "type": "bytes32"
        }
      ],
      "stateMutability": "view",
      "type": "function"
    },
    {
      "inputs": [
        {
          "internalType": "address",
          "name": "account",
          "type": "address"
        },
        {
          "internalType": "uint256",
          "name": "id",
          "type": "uint256"
        }
      ],
      "name": "balanceOf",
      "outputs": [
        {
          "internalType": "uint256",
          "name": "",
          "type": "uint256"
        }
      ],
      "stateMutability": "view",
      "type": "function"
    },
    {
      "inputs": [
        {
          "internalType": "address[]",
          "name": "accounts",
          "type": "address[]"
        },
        {
          "internalType": "uint256[]",
          "name": "ids",
          "type": "uint256[]"
        }
      ],
      "name": "balanceOfBatch",
      "outputs": [
        {
          "internalType": "uint256[]",
          "name": "",
          "type": "uint256[]"
        }
      ],
      "stateMutability": "view",
      "type": "function"
    },
    {
      "inputs": [
        {
          "internalType": "address",
          "name": "account",
          "type": "address"
        },
        {
          "internalType": "uint256",
          "name": "id",
          "type": "uint256"
        },
        {
          "internalType": "uint256",
          "name": "value",
          "type": "uint256"
        }
      ],
      "name": "burn",
      "outputs": [],
      "stateMutability": "nonpayable",
      "type": "function"
    },
    {
      "inputs": [
        {
          "internalType": "address",
          "name": "account",
          "type": "address"
        },
        {
          "internalType": "uint256[]",
          "name": "ids",
          "type": "uint256[]"
        },
        {
          "internalType": "uint256[]",
          "name": "values",
          "type": "uint256[]"
        }
      ],
      "name": "burnBatch",
      "outputs": [],
      "stateMutability": "nonpayable",
      "type": "function"
    },
    {
      "inputs": [
        {
          "internalType": "address",
          "name": "_owner",
          "type": "address"
        },
        {
          "internalType": "uint256",
          "name": "tokenId",
          "type": "uint256"
        },
        {
          "internalType": "uint256",
          "name": "amount",
          "type": "uint256"
        }
      ],
      "name": "burnIt",
      "outputs": [],
      "stateMutability": "nonpayable",
      "type": "function"
    },
    {
      "inputs": [],
      "name": "contractURI",
      "outputs": [
        {
          "internalType": "string",
          "name": "",
          "type": "string"
        }
      ],
      "stateMutability": "view",
      "type": "function"
    },
    {
      "inputs": [
        {
          "internalType": "uint256",
          "name": "tokenId",
          "type": "uint256"
        }
      ],
      "name": "getOwnerContent",
      "outputs": [
        {
          "internalType": "string",
          "name": "",
          "type": "string"
        }
      ],
      "stateMutability": "view",
      "type": "function"
    },
    {
      "inputs": [
        {
          "internalType": "bytes32",
          "name": "role",
          "type": "bytes32"
        }
      ],
      "name": "getRoleAdmin",
      "outputs": [
        {
          "internalType": "bytes32",
          "name": "",
          "type": "bytes32"
        }
      ],
      "stateMutability": "view",
      "type": "function"
    },
    {
      "inputs": [
        {
          "internalType": "uint256",
          "name": "tokenId",
          "type": "uint256"
        }
      ],
      "name": "getTokenData",
      "outputs": [
        {
          "components": [
            {
              "internalType": "address",
              "name": "creator",
              "type": "address"
            },
            {
              "internalType": "uint256",
              "name": "royalty",
              "type": "uint256"
            }
          ],
          "internalType": "struct NFT1155.tokenData",
          "name": "",
          "type": "tuple"
        }
      ],
      "stateMutability": "view",
      "type": "function"
    },
    {
      "inputs": [
        {
          "internalType": "bytes32",
          "name": "role",
          "type": "bytes32"
        },
        {
          "internalType": "address",
          "name": "account",
          "type": "address"
        }
      ],
      "name": "grantRole",
      "outputs": [],
      "stateMutability": "nonpayable",
      "type": "function"
    },
    {
      "inputs": [
        {
          "internalType": "bytes32",
          "name": "role",
          "type": "bytes32"
        },
        {
          "internalType": "address",
          "name": "account",
          "type": "address"
        }
      ],
      "name": "hasRole",
      "outputs": [
        {
          "internalType": "bool",
          "name": "",
          "type": "bool"
        }
      ],
      "stateMutability": "view",
      "type": "function"
    },
    {
      "inputs": [],
      "name": "id",
      "outputs": [
        {
          "internalType": "uint256",
          "name": "",
          "type": "uint256"
        }
      ],
      "stateMutability": "view",
      "type": "function"
    },
    {
      "inputs": [
        {
          "internalType": "uint256",
          "name": "",
          "type": "uint256"
        }
      ],
      "name": "ipfsHashes",
      "outputs": [
        {
          "internalType": "string",
          "name": "",
          "type": "string"
        }
      ],
      "stateMutability": "view",
      "type": "function"
    },
    {
      "inputs": [
        {
          "internalType": "address",
          "name": "account",
          "type": "address"
        },
        {
          "internalType": "address",
          "name": "operator",
          "type": "address"
        }
      ],
      "name": "isApprovedForAll",
      "outputs": [
        {
          "internalType": "bool",
          "name": "",
          "type": "bool"
        }
      ],
      "stateMutability": "view",
      "type": "function"
    },
    {
      "inputs": [
        {
          "internalType": "address",
          "name": "_owner",
          "type": "address"
        },
        {
          "internalType": "uint256",
          "name": "amount",
          "type": "uint256"
        },
        {
          "internalType": "uint256",
          "name": "royalty",
          "type": "uint256"
        },
        {
          "internalType": "string",
          "name": "ownerContent",
          "type": "string"
        },
        {
          "internalType": "string",
          "name": "ipfshash",
          "type": "string"
        }
      ],
      "name": "mintNew",
      "outputs": [
        {
          "internalType": "uint256",
          "name": "",
          "type": "uint256"
        }
      ],
      "stateMutability": "nonpayable",
      "type": "function"
    },
    {
      "inputs": [
        {
          "internalType": "bytes32",
          "name": "role",
          "type": "bytes32"
        },
        {
          "internalType": "address",
          "name": "account",
          "type": "address"
        }
      ],
      "name": "renounceRole",
      "outputs": [],
      "stateMutability": "nonpayable",
      "type": "function"
    },
    {
      "inputs": [
        {
          "internalType": "bytes32",
          "name": "role",
          "type": "bytes32"
        },
        {
          "internalType": "address",
          "name": "account",
          "type": "address"
        }
      ],
      "name": "revokeRole",
      "outputs": [],
      "stateMutability": "nonpayable",
      "type": "function"
    },
    {
      "inputs": [
        {
          "internalType": "address",
          "name": "from",
          "type": "address"
        },
        {
          "internalType": "address",
          "name": "to",
          "type": "address"
        },
        {
          "internalType": "uint256[]",
          "name": "ids",
          "type": "uint256[]"
        },
        {
          "internalType": "uint256[]",
          "name": "amounts",
          "type": "uint256[]"
        },
        {
          "internalType": "bytes",
          "name": "data",
          "type": "bytes"
        }
      ],
      "name": "safeBatchTransferFrom",
      "outputs": [],
      "stateMutability": "nonpayable",
      "type": "function"
    },
    {
      "inputs": [
        {
          "internalType": "address",
          "name": "from",
          "type": "address"
        },
        {
          "internalType": "address",
          "name": "to",
          "type": "address"
        },
        {
          "internalType": "uint256",
          "name": "id",
          "type": "uint256"
        },
        {
          "internalType": "uint256",
          "name": "amount",
          "type": "uint256"
        },
        {
          "internalType": "bytes",
          "name": "data",
          "type": "bytes"
        }
      ],
      "name": "safeTransferFrom",
      "outputs": [],
      "stateMutability": "nonpayable",
      "type": "function"
    },
    {
      "inputs": [
        {
          "internalType": "address",
          "name": "operator",
          "type": "address"
        },
        {
          "internalType": "bool",
          "name": "approved",
          "type": "bool"
        }
      ],
      "name": "setApprovalForAll",
      "outputs": [],
      "stateMutability": "nonpayable",
      "type": "function"
    },
    {
      "inputs": [
        {
          "internalType": "bytes4",
          "name": "interfaceId",
          "type": "bytes4"
        }
      ],
      "name": "supportsInterface",
      "outputs": [
        {
          "internalType": "bool",
          "name": "",
          "type": "bool"
        }
      ],
      "stateMutability": "view",
      "type": "function"
    },
    {
      "inputs": [
        {
          "internalType": "uint256",
          "name": "",
          "type": "uint256"
        }
      ],
      "name": "tokenDatas",
      "outputs": [
        {
          "internalType": "address",
          "name": "creator",
          "type": "address"
        },
        {
          "internalType": "uint256",
          "name": "royalty",
          "type": "uint256"
        }
      ],
      "stateMutability": "view",
      "type": "function"
    },
    {
      "inputs": [
        {
          "internalType": "uint256",
          "name": "",
          "type": "uint256"
        }
      ],
      "name": "uri",
      "outputs": [
        {
          "internalType": "string",
          "name": "",
          "type": "string"
        }
      ],
      "stateMutability": "view",
      "type": "function"
    }
  ],
  "transactionHash": "0xced5d90ce5d62fbc17a0ce7bf7df807f08db353174b960da32db8093ae5c2d2e",
  "args": [
    "Loquesea"
  ],
  "numDeployments": 1,
  "solcInputHash": "903a91f391d55b462ec2ed341dcd145d",
  "bytecode": "0x608060405260016004553480156200001657600080fd5b50604051620028fa380380620028fa83398101604081905262000039916200023b565b6040805160208101909152600081526200005381620000d3565b5062000061600033620000ec565b60408051808201909152600780825266697066733a2f2f60c81b6020909201918252620000919160059162000195565b5080604051602001620000a59190620002f3565b60405160208183030381529060405260069080519060200190620000cb92919062000195565b5050620003aa565b8051620000e890600390602084019062000195565b5050565b6000828152602081815260408083206001600160a01b0385168452909152902054620000e8908390839060ff16620000e8576000828152602081815260408083206001600160a01b03851684529091529020805460ff19166001179055620001513390565b6001600160a01b0316816001600160a01b0316837f2f8788117e7eff1d82e926ec794901d17c78024a50270940304540a733656f0d60405160405180910390a45050565b828054620001a39062000357565b90600052602060002090601f016020900481019282620001c7576000855562000212565b82601f10620001e257805160ff191683800117855562000212565b8280016001018555821562000212579182015b8281111562000212578251825591602001919060010190620001f5565b506200022092915062000224565b5090565b5b8082111562000220576000815560010162000225565b6000602082840312156200024e57600080fd5b81516001600160401b03808211156200026657600080fd5b818401915084601f8301126200027b57600080fd5b81518181111562000290576200029062000394565b604051601f8201601f19908116603f01168101908382118183101715620002bb57620002bb62000394565b81604052828152876020848701011115620002d557600080fd5b620002e883602083016020880162000324565b979650505050505050565b66697066733a2f2f60c81b8152600082516200031781600785016020870162000324565b9190910160070192915050565b60005b838110156200034157818101518382015260200162000327565b8381111562000351576000848401525b50505050565b600181811c908216806200036c57607f821691505b602082108114156200038e57634e487b7160e01b600052602260045260246000fd5b50919050565b634e487b7160e01b600052604160045260246000fd5b61254080620003ba6000396000f3fe608060405234801561001057600080fd5b50600436106101575760003560e01c8063a217fddf116100c3578063da0063411161007c578063da006341146103a2578063e8a3d485146103b5578063e985e9c5146103bd578063f242432a146103f9578063f5298aca1461040c578063f701ce4e1461041f57600080fd5b8063a217fddf146102df578063a22cb465146102e7578063a4de2f5c146102fa578063af640d0f1461030d578063b09afec114610316578063d547741f1461038f57600080fd5b806336568abe1161011557806336568abe146102215780634e1273f41461023457806367968058146102545780636b20c454146102675780636fc37a751461027a57806391d14854146102cc57600080fd5b8062fdd58e1461015c57806301ffc9a7146101825780630e89341c146101b6578063248a9ca3146101d65780632eb2c2d6146101f95780632f2ff15d1461020e575b600080fd5b61016f61016a366004611d11565b610432565b6040519081526020015b60405180910390f35b6101a6610190366004611ed3565b6001600160e01b0319166301ffc9a760e01b1490565b6040519015158152602001610179565b6101c96101c4366004611e97565b6104ca565b60405161017991906120cd565b61016f6101e4366004611e97565b60009081526020819052604090206001015490565b61020c610207366004611b52565b61055e565b005b61020c61021c366004611eb0565b6105bb565b61020c61022f366004611eb0565b6105e5565b610247610242366004611dc6565b610663565b604051610179919061208c565b61016f610262366004611d6e565b61078d565b61020c610275366004611c61565b610901565b6102ad610288366004611e97565b600860205260009081526040902080546001909101546001600160a01b039091169082565b604080516001600160a01b039093168352602083019190915201610179565b6101a66102da366004611eb0565b610955565b61016f600081565b61020c6102f5366004611cd5565b61097e565b6101c9610308366004611e97565b610989565b61016f60045481565b61036b610324366004611e97565b604080518082019091526000808252602082015250600090815260086020908152604091829020825180840190935280546001600160a01b03168352600101549082015290565b6040805182516001600160a01b031681526020928301519281019290925201610179565b61020c61039d366004611eb0565b610a23565b6101c96103b0366004611e97565b610a48565b6101c9610ab2565b6101a66103cb366004611b1f565b6001600160a01b03918216600090815260026020908152604080832093909416825291909152205460ff1690565b61020c610407366004611bfc565b610b44565b61020c61041a366004611d3b565b610b9a565b61020c61042d366004611d3b565b610bee565b60006001600160a01b0383166104a25760405162461bcd60e51b815260206004820152602a60248201527f455243313135353a2061646472657373207a65726f206973206e6f742061207660448201526930b634b21037bbb732b960b11b60648201526084015b60405180910390fd5b5060009081526001602090815260408083206001600160a01b03949094168352929052205490565b6060600380546104d990612389565b80601f016020809104026020016040519081016040528092919081815260200182805461050590612389565b80156105525780601f1061052757610100808354040283529160200191610552565b820191906000526020600020905b81548152906001019060200180831161053557829003601f168201915b50505050509050919050565b6001600160a01b03851633148061057a575061057a85336103cb565b8061058b575061058b600033610955565b6105a75760405162461bcd60e51b81526004016104999061216c565b6105b48585858585610c97565b5050505050565b6000828152602081905260409020600101546105d681610e36565b6105e08383610e43565b505050565b6001600160a01b03811633146106555760405162461bcd60e51b815260206004820152602f60248201527f416363657373436f6e74726f6c3a2063616e206f6e6c792072656e6f756e636560448201526e103937b632b9903337b91039b2b63360891b6064820152608401610499565b61065f8282610ec7565b5050565b606081518351146106c85760405162461bcd60e51b815260206004820152602960248201527f455243313135353a206163636f756e747320616e6420696473206c656e677468604482015268040dad2e6dac2e8c6d60bb1b6064820152608401610499565b6000835167ffffffffffffffff8111156106e4576106e4612438565b60405190808252806020026020018201604052801561070d578160200160208202803683370190505b50905060005b84518110156107855761075885828151811061073157610731612422565b602002602001015185838151811061074b5761074b612422565b6020026020010151610432565b82828151811061076a5761076a612422565b602090810291909101015261077e816123f1565b9050610713565b509392505050565b60006107998133610955565b6107dd5760405162461bcd60e51b81526020600482015260156024820152744f6e6c79206f776e65722063616e2061636365737360581b6044820152606401610499565b6107fa866004548760405180602001604052806000815250610f2c565b6004546000908152600760209081526040909120835161081c9285019061197f565b506040805180820182526001600160a01b038881168252602080830188815260048054600090815260088452868120955186546001600160a01b0319169516949094178555905160019094019390935591548152600982529190912084516108869286019061197f565b50600454604080516001600160a01b03891681526020810188905280820192909252517f738d754d9e4ed63efb97cec47b56299361b8fd39cd676286fbe4794172cbe7d79181900360600190a1600480549060006108e3836123f1565b919050555060016004546108f7919061232f565b9695505050505050565b6001600160a01b03831633148061091d575061091d83336103cb565b8061092e575061092e600033610955565b61094a5760405162461bcd60e51b81526004016104999061216c565b6105e0838383611042565b6000918252602082815260408084206001600160a01b0393909316845291905290205460ff1690565b61065f3383836111d1565b600760205260009081526040902080546109a290612389565b80601f01602080910402602001604051908101604052809291908181526020018280546109ce90612389565b8015610a1b5780601f106109f057610100808354040283529160200191610a1b565b820191906000526020600020905b8154815290600101906020018083116109fe57829003601f168201915b505050505081565b600082815260208190526040902060010154610a3e81610e36565b6105e08383610ec7565b60606000610a563384610432565b11610a995760405162461bcd60e51b8152602060048201526013602482015272596f7520646f6e74206f776e20746f6b656e7360681b6044820152606401610499565b600082815260096020526040902080546104d990612389565b606060068054610ac190612389565b80601f0160208091040260200160405190810160405280929190818152602001828054610aed90612389565b8015610b3a5780601f10610b0f57610100808354040283529160200191610b3a565b820191906000526020600020905b815481529060010190602001808311610b1d57829003601f168201915b5050505050905090565b6001600160a01b038516331480610b605750610b6085336103cb565b80610b715750610b71600033610955565b610b8d5760405162461bcd60e51b81526004016104999061216c565b6105b485858585856112b2565b6001600160a01b038316331480610bb65750610bb683336103cb565b80610bc75750610bc7600033610955565b610be35760405162461bcd60e51b81526004016104999061216c565b6105e08383836113e0565b610bf9600033610955565b610c3d5760405162461bcd60e51b81526020600482015260156024820152744f6e6c79206f776e65722063616e2061636365737360581b6044820152606401610499565b610c48838383610b9a565b604080516001600160a01b0385168152602081018390529081018390527f1cc509fd6d94910dd0d5d3f822c08fc79ca13c4324eda49ceffd7fdcf99ddb049060600160405180910390a1505050565b8151835114610cb85760405162461bcd60e51b81526004016104999061228c565b6001600160a01b038416610cde5760405162461bcd60e51b8152600401610499906121ba565b3360005b8451811015610dc8576000858281518110610cff57610cff612422565b602002602001015190506000858381518110610d1d57610d1d612422565b60209081029190910181015160008481526001835260408082206001600160a01b038e168352909352919091205490915081811015610d6e5760405162461bcd60e51b815260040161049990612242565b60008381526001602090815260408083206001600160a01b038e8116855292528083208585039055908b16825281208054849290610dad9084906122f8565b9250508190555050505080610dc1906123f1565b9050610ce2565b50846001600160a01b0316866001600160a01b0316826001600160a01b03167f4a39dc06d4c0dbc64b70af90fd698a233a518aa5d07e595d983b8c0526c8f7fb8787604051610e1892919061209f565b60405180910390a4610e2e8187878787876114e7565b505050505050565b610e408133611652565b50565b610e4d8282610955565b61065f576000828152602081815260408083206001600160a01b03851684529091529020805460ff19166001179055610e833390565b6001600160a01b0316816001600160a01b0316837f2f8788117e7eff1d82e926ec794901d17c78024a50270940304540a733656f0d60405160405180910390a45050565b610ed18282610955565b1561065f576000828152602081815260408083206001600160a01b0385168085529252808320805460ff1916905551339285917ff6391f5c32d9c69d2a47ea670b442974b53935d1edc7fd64eb21e047a839171b9190a45050565b6001600160a01b038416610f8c5760405162461bcd60e51b815260206004820152602160248201527f455243313135353a206d696e7420746f20746865207a65726f206164647265736044820152607360f81b6064820152608401610499565b336000610f98856116ab565b90506000610fa5856116ab565b905060008681526001602090815260408083206001600160a01b038b16845290915281208054879290610fd99084906122f8565b909155505060408051878152602081018790526001600160a01b03808a1692600092918716917fc3d58168c5ae7397731d063d5bbf3d657854427343f4c083240f7aacaa2d0f62910160405180910390a4611039836000898989896116f6565b50505050505050565b6001600160a01b0383166110685760405162461bcd60e51b8152600401610499906121ff565b80518251146110895760405162461bcd60e51b81526004016104999061228c565b604080516020810190915260009081905233905b83518110156111625760008482815181106110ba576110ba612422565b6020026020010151905060008483815181106110d8576110d8612422565b60209081029190910181015160008481526001835260408082206001600160a01b038c1683529093529190912054909150818110156111295760405162461bcd60e51b815260040161049990612128565b60009283526001602090815260408085206001600160a01b038b168652909152909220910390558061115a816123f1565b91505061109d565b5060006001600160a01b0316846001600160a01b0316826001600160a01b03167f4a39dc06d4c0dbc64b70af90fd698a233a518aa5d07e595d983b8c0526c8f7fb86866040516111b392919061209f565b60405180910390a46040805160208101909152600090525b50505050565b816001600160a01b0316836001600160a01b031614156112455760405162461bcd60e51b815260206004820152602960248201527f455243313135353a2073657474696e6720617070726f76616c20737461747573604482015268103337b91039b2b63360b91b6064820152608401610499565b6001600160a01b03838116600081815260026020908152604080832094871680845294825291829020805460ff191686151590811790915591519182527f17307eab39ab6107e8899845ad3d59bd9653f200f220920489ca2b5937696c31910160405180910390a3505050565b6001600160a01b0384166112d85760405162461bcd60e51b8152600401610499906121ba565b3360006112e4856116ab565b905060006112f1856116ab565b905060008681526001602090815260408083206001600160a01b038c168452909152902054858110156113365760405162461bcd60e51b815260040161049990612242565b60008781526001602090815260408083206001600160a01b038d8116855292528083208985039055908a168252812080548892906113759084906122f8565b909155505060408051888152602081018890526001600160a01b03808b16928c821692918816917fc3d58168c5ae7397731d063d5bbf3d657854427343f4c083240f7aacaa2d0f62910160405180910390a46113d5848a8a8a8a8a6116f6565b505050505050505050565b6001600160a01b0383166114065760405162461bcd60e51b8152600401610499906121ff565b336000611412846116ab565b9050600061141f846116ab565b6040805160208082018352600091829052888252600181528282206001600160a01b038b168352905220549091508481101561146d5760405162461bcd60e51b815260040161049990612128565b60008681526001602090815260408083206001600160a01b038b81168086529184528285208a8703905582518b81529384018a90529092908816917fc3d58168c5ae7397731d063d5bbf3d657854427343f4c083240f7aacaa2d0f62910160405180910390a4604080516020810190915260009052611039565b6001600160a01b0384163b15610e2e5760405163bc197c8160e01b81526001600160a01b0385169063bc197c819061152b9089908990889088908890600401611fe9565b602060405180830381600087803b15801561154557600080fd5b505af1925050508015611575575060408051601f3d908101601f1916820190925261157291810190611ef0565b60015b6116225761158161244e565b806308c379a014156115bb575061159661246a565b806115a157506115bd565b8060405162461bcd60e51b815260040161049991906120cd565b505b60405162461bcd60e51b815260206004820152603460248201527f455243313135353a207472616e7366657220746f206e6f6e2d455243313135356044820152732932b1b2b4bb32b91034b6b83632b6b2b73a32b960611b6064820152608401610499565b6001600160e01b0319811663bc197c8160e01b146110395760405162461bcd60e51b8152600401610499906120e0565b61165c8282610955565b61065f57611669816117c0565b6116748360206117dc565b604051602001611685929190611f74565b60408051601f198184030181529082905262461bcd60e51b8252610499916004016120cd565b604080516001808252818301909252606091600091906020808301908036833701905050905082816000815181106116e5576116e5612422565b602090810291909101015292915050565b6001600160a01b0384163b15610e2e5760405163f23a6e6160e01b81526001600160a01b0385169063f23a6e619061173a9089908990889088908890600401612047565b602060405180830381600087803b15801561175457600080fd5b505af1925050508015611784575060408051601f3d908101601f1916820190925261178191810190611ef0565b60015b6117905761158161244e565b6001600160e01b0319811663f23a6e6160e01b146110395760405162461bcd60e51b8152600401610499906120e0565b60606117d66001600160a01b03831660146117dc565b92915050565b606060006117eb836002612310565b6117f69060026122f8565b67ffffffffffffffff81111561180e5761180e612438565b6040519080825280601f01601f191660200182016040528015611838576020820181803683370190505b509050600360fc1b8160008151811061185357611853612422565b60200101906001600160f81b031916908160001a905350600f60fb1b8160018151811061188257611882612422565b60200101906001600160f81b031916908160001a90535060006118a6846002612310565b6118b19060016122f8565b90505b6001811115611929576f181899199a1a9b1b9c1cb0b131b232b360811b85600f16601081106118e5576118e5612422565b1a60f81b8282815181106118fb576118fb612422565b60200101906001600160f81b031916908160001a90535060049490941c9361192281612372565b90506118b4565b5083156119785760405162461bcd60e51b815260206004820181905260248201527f537472696e67733a20686578206c656e67746820696e73756666696369656e746044820152606401610499565b9392505050565b82805461198b90612389565b90600052602060002090601f0160209004810192826119ad57600085556119f3565b82601f106119c657805160ff19168380011785556119f3565b828001600101855582156119f3579182015b828111156119f35782518255916020019190600101906119d8565b506119ff929150611a03565b5090565b5b808211156119ff5760008155600101611a04565b80356001600160a01b0381168114611a2f57600080fd5b919050565b600082601f830112611a4557600080fd5b81356020611a52826122d4565b604051611a5f82826123c4565b8381528281019150858301600585901b87018401881015611a7f57600080fd5b60005b85811015611a9e57813584529284019290840190600101611a82565b5090979650505050505050565b600082601f830112611abc57600080fd5b813567ffffffffffffffff811115611ad657611ad6612438565b604051611aed601f8301601f1916602001826123c4565b818152846020838601011115611b0257600080fd5b816020850160208301376000918101602001919091529392505050565b60008060408385031215611b3257600080fd5b611b3b83611a18565b9150611b4960208401611a18565b90509250929050565b600080600080600060a08688031215611b6a57600080fd5b611b7386611a18565b9450611b8160208701611a18565b9350604086013567ffffffffffffffff80821115611b9e57600080fd5b611baa89838a01611a34565b94506060880135915080821115611bc057600080fd5b611bcc89838a01611a34565b93506080880135915080821115611be257600080fd5b50611bef88828901611aab565b9150509295509295909350565b600080600080600060a08688031215611c1457600080fd5b611c1d86611a18565b9450611c2b60208701611a18565b93506040860135925060608601359150608086013567ffffffffffffffff811115611c5557600080fd5b611bef88828901611aab565b600080600060608486031215611c7657600080fd5b611c7f84611a18565b9250602084013567ffffffffffffffff80821115611c9c57600080fd5b611ca887838801611a34565b93506040860135915080821115611cbe57600080fd5b50611ccb86828701611a34565b9150509250925092565b60008060408385031215611ce857600080fd5b611cf183611a18565b915060208301358015158114611d0657600080fd5b809150509250929050565b60008060408385031215611d2457600080fd5b611d2d83611a18565b946020939093013593505050565b600080600060608486031215611d5057600080fd5b611d5984611a18565b95602085013595506040909401359392505050565b600080600080600060a08688031215611d8657600080fd5b611d8f86611a18565b94506020860135935060408601359250606086013567ffffffffffffffff80821115611dba57600080fd5b611bcc89838a01611aab565b60008060408385031215611dd957600080fd5b823567ffffffffffffffff80821115611df157600080fd5b818501915085601f830112611e0557600080fd5b81356020611e12826122d4565b604051611e1f82826123c4565b8381528281019150858301600585901b870184018b1015611e3f57600080fd5b600096505b84871015611e6957611e5581611a18565b835260019690960195918301918301611e44565b5096505086013592505080821115611e8057600080fd5b50611e8d85828601611a34565b9150509250929050565b600060208284031215611ea957600080fd5b5035919050565b60008060408385031215611ec357600080fd5b82359150611b4960208401611a18565b600060208284031215611ee557600080fd5b8135611978816124f4565b600060208284031215611f0257600080fd5b8151611978816124f4565b600081518084526020808501945080840160005b83811015611f3d57815187529582019590820190600101611f21565b509495945050505050565b60008151808452611f60816020860160208601612346565b601f01601f19169290920160200192915050565b7f416363657373436f6e74726f6c3a206163636f756e7420000000000000000000815260008351611fac816017850160208801612346565b7001034b99036b4b9b9b4b733903937b6329607d1b6017918401918201528351611fdd816028840160208801612346565b01602801949350505050565b6001600160a01b0386811682528516602082015260a06040820181905260009061201590830186611f0d565b82810360608401526120278186611f0d565b9050828103608084015261203b8185611f48565b98975050505050505050565b6001600160a01b03868116825285166020820152604081018490526060810183905260a06080820181905260009061208190830184611f48565b979650505050505050565b6020815260006119786020830184611f0d565b6040815260006120b26040830185611f0d565b82810360208401526120c48185611f0d565b95945050505050565b6020815260006119786020830184611f48565b60208082526028908201527f455243313135353a204552433131353552656365697665722072656a656374656040820152676420746f6b656e7360c01b606082015260800190565b60208082526024908201527f455243313135353a206275726e20616d6f756e7420657863656564732062616c604082015263616e636560e01b606082015260800190565b6020808252602e908201527f455243313135353a2063616c6c6572206973206e6f7420746f6b656e206f776e60408201526d195c881bdc88185c1c1c9bdd995960921b606082015260800190565b60208082526025908201527f455243313135353a207472616e7366657220746f20746865207a65726f206164604082015264647265737360d81b606082015260800190565b60208082526023908201527f455243313135353a206275726e2066726f6d20746865207a65726f206164647260408201526265737360e81b606082015260800190565b6020808252602a908201527f455243313135353a20696e73756666696369656e742062616c616e636520666f60408201526939103a3930b739b332b960b11b606082015260800190565b60208082526028908201527f455243313135353a2069647320616e6420616d6f756e7473206c656e677468206040820152670dad2e6dac2e8c6d60c31b606082015260800190565b600067ffffffffffffffff8211156122ee576122ee612438565b5060051b60200190565b6000821982111561230b5761230b61240c565b500190565b600081600019048311821515161561232a5761232a61240c565b500290565b6000828210156123415761234161240c565b500390565b60005b83811015612361578181015183820152602001612349565b838111156111cb5750506000910152565b6000816123815761238161240c565b506000190190565b600181811c9082168061239d57607f821691505b602082108114156123be57634e487b7160e01b600052602260045260246000fd5b50919050565b601f8201601f1916810167ffffffffffffffff811182821017156123ea576123ea612438565b6040525050565b60006000198214156124055761240561240c565b5060010190565b634e487b7160e01b600052601160045260246000fd5b634e487b7160e01b600052603260045260246000fd5b634e487b7160e01b600052604160045260246000fd5b600060033d11156124675760046000803e5060005160e01c5b90565b600060443d10156124785790565b6040516003193d81016004833e81513d67ffffffffffffffff81602484011181841117156124a857505050505090565b82850191508151818111156124c05750505050505090565b843d87010160208285010111156124da5750505050505090565b6124e9602082860101876123c4565b509095945050505050565b6001600160e01b031981168114610e4057600080fdfea2646970667358221220fde89dd6f7f5c174e34a107ba279296fae19f1dbd8e5c2bc014e8a2ddff1a9e764736f6c63430008070033",
  "devdoc": {
    "kind": "dev",
    "methods": {
      "balanceOf(address,uint256)": {
        "details": "See {IERC1155-balanceOf}. Requirements: - `account` cannot be the zero address."
      },
      "balanceOfBatch(address[],uint256[])": {
        "details": "See {IERC1155-balanceOfBatch}. Requirements: - `accounts` and `ids` must have the same length."
      },
      "burnIt(address,uint256,uint256)": {
        "details": "user burns his NFTs"
      },
      "getRoleAdmin(bytes32)": {
        "details": "Returns the admin role that controls `role`. See {grantRole} and {revokeRole}. To change a role's admin, use {_setRoleAdmin}."
      },
      "grantRole(bytes32,address)": {
        "details": "Grants `role` to `account`. If `account` had not been already granted `role`, emits a {RoleGranted} event. Requirements: - the caller must have ``role``'s admin role. May emit a {RoleGranted} event."
      },
      "hasRole(bytes32,address)": {
        "details": "Returns `true` if `account` has been granted `role`."
      },
      "isApprovedForAll(address,address)": {
        "details": "See {IERC1155-isApprovedForAll}."
      },
      "mintNew(address,uint256,uint256,string,string)": {
        "details": "user creates new NFTs"
      },
      "renounceRole(bytes32,address)": {
        "details": "Revokes `role` from the calling account. Roles are often managed via {grantRole} and {revokeRole}: this function's purpose is to provide a mechanism for accounts to lose their privileges if they are compromised (such as when a trusted device is misplaced). If the calling account had been revoked `role`, emits a {RoleRevoked} event. Requirements: - the caller must be `account`. May emit a {RoleRevoked} event."
      },
      "revokeRole(bytes32,address)": {
        "details": "Revokes `role` from `account`. If `account` had been granted `role`, emits a {RoleRevoked} event. Requirements: - the caller must have ``role``'s admin role. May emit a {RoleRevoked} event."
      },
      "safeBatchTransferFrom(address,address,uint256[],uint256[],bytes)": {
        "details": "See {IERC1155-safeBatchTransferFrom}."
      },
      "safeTransferFrom(address,address,uint256,uint256,bytes)": {
        "details": "See {IERC1155-safeTransferFrom}."
      },
      "setApprovalForAll(address,bool)": {
        "details": "See {IERC1155-setApprovalForAll}."
      },
      "supportsInterface(bytes4)": {
        "details": "See {IERC165-supportsInterface}."
      },
      "uri(uint256)": {
        "details": "See {IERC1155MetadataURI-uri}. This implementation returns the same URI for *all* token types. It relies on the token type ID substitution mechanism https://eips.ethereum.org/EIPS/eip-1155#metadata[defined in the EIP]. Clients calling this function must replace the `\\{id\\}` substring with the actual token type ID."
      }
    },
    "version": 1
  },
  "userdoc": {
    "kind": "user",
    "methods": {},
    "version": 1
  },
  "storageLayout": {
    "storage": [
      {
        "astId": 24,
        "contract": "contracts/NFT1155.sol:NFT1155",
        "label": "_roles",
        "offset": 0,
        "slot": "0",
        "type": "t_mapping(t_bytes32,t_struct(RoleData)19_storage)"
      },
      {
        "astId": 394,
        "contract": "contracts/NFT1155.sol:NFT1155",
        "label": "_balances",
        "offset": 0,
        "slot": "1",
        "type": "t_mapping(t_uint256,t_mapping(t_address,t_uint256))"
      },
      {
        "astId": 400,
        "contract": "contracts/NFT1155.sol:NFT1155",
        "label": "_operatorApprovals",
        "offset": 0,
        "slot": "2",
        "type": "t_mapping(t_address,t_mapping(t_address,t_bool))"
      },
      {
        "astId": 402,
        "contract": "contracts/NFT1155.sol:NFT1155",
        "label": "_uri",
        "offset": 0,
        "slot": "3",
        "type": "t_string_storage"
      },
      {
        "astId": 3269,
        "contract": "contracts/NFT1155.sol:NFT1155",
        "label": "id",
        "offset": 0,
        "slot": "4",
        "type": "t_uint256"
      },
      {
        "astId": 3271,
        "contract": "contracts/NFT1155.sol:NFT1155",
        "label": "_baseUri",
        "offset": 0,
        "slot": "5",
        "type": "t_string_storage"
      },
      {
        "astId": 3273,
        "contract": "contracts/NFT1155.sol:NFT1155",
        "label": "_contractUri",
        "offset": 0,
        "slot": "6",
        "type": "t_string_storage"
      },
      {
        "astId": 3282,
        "contract": "contracts/NFT1155.sol:NFT1155",
        "label": "ipfsHashes",
        "offset": 0,
        "slot": "7",
        "type": "t_mapping(t_uint256,t_string_storage)"
      },
      {
        "astId": 3287,
        "contract": "contracts/NFT1155.sol:NFT1155",
        "label": "tokenDatas",
        "offset": 0,
        "slot": "8",
        "type": "t_mapping(t_uint256,t_struct(tokenData)3278_storage)"
      },
      {
        "astId": 3291,
        "contract": "contracts/NFT1155.sol:NFT1155",
        "label": "ownerContents",
        "offset": 0,
        "slot": "9",
        "type": "t_mapping(t_uint256,t_string_storage)"
      }
    ],
    "types": {
      "t_address": {
        "encoding": "inplace",
        "label": "address",
        "numberOfBytes": "20"
      },
      "t_bool": {
        "encoding": "inplace",
        "label": "bool",
        "numberOfBytes": "1"
      },
      "t_bytes32": {
        "encoding": "inplace",
        "label": "bytes32",
        "numberOfBytes": "32"
      },
      "t_mapping(t_address,t_bool)": {
        "encoding": "mapping",
        "key": "t_address",
        "label": "mapping(address => bool)",
        "numberOfBytes": "32",
        "value": "t_bool"
      },
      "t_mapping(t_address,t_mapping(t_address,t_bool))": {
        "encoding": "mapping",
        "key": "t_address",
        "label": "mapping(address => mapping(address => bool))",
        "numberOfBytes": "32",
        "value": "t_mapping(t_address,t_bool)"
      },
      "t_mapping(t_address,t_uint256)": {
        "encoding": "mapping",
        "key": "t_address",
        "label": "mapping(address => uint256)",
        "numberOfBytes": "32",
        "value": "t_uint256"
      },
      "t_mapping(t_bytes32,t_struct(RoleData)19_storage)": {
        "encoding": "mapping",
        "key": "t_bytes32",
        "label": "mapping(bytes32 => struct AccessControl.RoleData)",
        "numberOfBytes": "32",
        "value": "t_struct(RoleData)19_storage"
      },
      "t_mapping(t_uint256,t_mapping(t_address,t_uint256))": {
        "encoding": "mapping",
        "key": "t_uint256",
        "label": "mapping(uint256 => mapping(address => uint256))",
        "numberOfBytes": "32",
        "value": "t_mapping(t_address,t_uint256)"
      },
      "t_mapping(t_uint256,t_string_storage)": {
        "encoding": "mapping",
        "key": "t_uint256",
        "label": "mapping(uint256 => string)",
        "numberOfBytes": "32",
        "value": "t_string_storage"
      },
      "t_mapping(t_uint256,t_struct(tokenData)3278_storage)": {
        "encoding": "mapping",
        "key": "t_uint256",
        "label": "mapping(uint256 => struct NFT1155.tokenData)",
        "numberOfBytes": "32",
        "value": "t_struct(tokenData)3278_storage"
      },
      "t_string_storage": {
        "encoding": "bytes",
        "label": "string",
        "numberOfBytes": "32"
      },
      "t_struct(RoleData)19_storage": {
        "encoding": "inplace",
        "label": "struct AccessControl.RoleData",
        "members": [
          {
            "astId": 16,
            "contract": "contracts/NFT1155.sol:NFT1155",
            "label": "members",
            "offset": 0,
            "slot": "0",
            "type": "t_mapping(t_address,t_bool)"
          },
          {
            "astId": 18,
            "contract": "contracts/NFT1155.sol:NFT1155",
            "label": "adminRole",
            "offset": 0,
            "slot": "1",
            "type": "t_bytes32"
          }
        ],
        "numberOfBytes": "64"
      },
      "t_struct(tokenData)3278_storage": {
        "encoding": "inplace",
        "label": "struct NFT1155.tokenData",
        "members": [
          {
            "astId": 3275,
            "contract": "contracts/NFT1155.sol:NFT1155",
            "label": "creator",
            "offset": 0,
            "slot": "0",
            "type": "t_address"
          },
          {
            "astId": 3277,
            "contract": "contracts/NFT1155.sol:NFT1155",
            "label": "royalty",
            "offset": 0,
            "slot": "1",
            "type": "t_uint256"
          }
        ],
        "numberOfBytes": "64"
      },
      "t_uint256": {
        "encoding": "inplace",
        "label": "uint256",
        "numberOfBytes": "32"
      }
    }
  }
}